{
  "contractName": "mappingContract",
  "abi": [
    {
      "constant": false,
      "inputs": [
        {
          "internalType": "string",
          "name": "country",
          "type": "string"
        },
        {
          "internalType": "string",
          "name": "capital",
          "type": "string"
        }
      ],
      "name": "addCaptital",
      "outputs": [],
      "payable": false,
      "stateMutability": "nonpayable",
      "type": "function"
    },
    {
      "constant": true,
      "inputs": [
        {
          "internalType": "string",
          "name": "_country",
          "type": "string"
        }
      ],
      "name": "getCaptital",
      "outputs": [
        {
          "internalType": "string",
          "name": "",
          "type": "string"
        }
      ],
      "payable": false,
      "stateMutability": "view",
      "type": "function"
    },
    {
      "constant": false,
      "inputs": [
        {
          "internalType": "string",
          "name": "country",
          "type": "string"
        }
      ],
      "name": "removeCapital",
      "outputs": [],
      "payable": false,
      "stateMutability": "nonpayable",
      "type": "function"
    }
  ],
  "bytecode": "0x608060405234801561001057600080fd5b506106ae806100206000396000f3fe608060405234801561001057600080fd5b50600436106100415760003560e01c8063049ca8c314610046578063a28bbb3d1461017a578063fe6020ba14610235575b600080fd5b6100ff6004803603602081101561005c57600080fd5b810190808035906020019064010000000081111561007957600080fd5b82018360208201111561008b57600080fd5b803590602001918460018302840111640100000000831117156100ad57600080fd5b91908080601f016020809104026020016040519081016040528093929190818152602001838380828437600081840152601f19601f820116905080830192505050505050509192919290505050610387565b6040518080602001828103825283818151815260200191508051906020019080838360005b8381101561013f578082015181840152602081019050610124565b50505050905090810190601f16801561016c5780820380516001836020036101000a031916815260200191505b509250505060405180910390f35b6102336004803603602081101561019057600080fd5b81019080803590602001906401000000008111156101ad57600080fd5b8201836020820111156101bf57600080fd5b803590602001918460018302840111640100000000831117156101e157600080fd5b91908080601f016020809104026020016040519081016040528093929190818152602001838380828437600081840152601f19601f820116905080830192505050505050509192919290505050610492565b005b6103856004803603604081101561024b57600080fd5b810190808035906020019064010000000081111561026857600080fd5b82018360208201111561027a57600080fd5b8035906020019184600183028401116401000000008311171561029c57600080fd5b91908080601f016020809104026020016040519081016040528093929190818152602001838380828437600081840152601f19601f820116905080830192505050505050509192919290803590602001906401000000008111156102ff57600080fd5b82018360208201111561031157600080fd5b8035906020019184600183028401116401000000008311171561033357600080fd5b91908080601f016020809104026020016040519081016040528093929190818152602001838380828437600081840152601f19601f82011690508083019250505050505050919291929050505061050a565b005b60606000826040518082805190602001908083835b602083106103bf578051825260208201915060208101905060208303925061039c565b6001836020036101000a03801982511681845116808217855250505050505090500191505090815260200160405180910390208054600181600116156101000203166002900480601f0160208091040260200160405190810160405280929190818152602001828054600181600116156101000203166002900480156104865780601f1061045b57610100808354040283529160200191610486565b820191906000526020600020905b81548152906001019060200180831161046957829003601f168201915b50505050509050919050565b6000816040518082805190602001908083835b602083106104c857805182526020820191506020810190506020830392506104a5565b6001836020036101000a03801982511681845116808217855250505050505090500191505090815260200160405180910390206000610507919061058c565b50565b806000836040518082805190602001908083835b60208310610541578051825260208201915060208101905060208303925061051e565b6001836020036101000a038019825116818451168082178552505050505050905001915050908152602001604051809103902090805190602001906105879291906105d4565b505050565b50805460018160011615610100020316600290046000825580601f106105b257506105d1565b601f0160209004906000526020600020908101906105d09190610654565b5b50565b828054600181600116156101000203166002900490600052602060002090601f016020900481019282601f1061061557805160ff1916838001178555610643565b82800160010185558215610643579182015b82811115610642578251825591602001919060010190610627565b5b5090506106509190610654565b5090565b61067691905b8082111561067257600081600090555060010161065a565b5090565b9056fea265627a7a72315820e66af230e195cd3cc91dcc2bcdacf82d2f9ba31adf1a339fae5f99882596c91d64736f6c63430005100032",
  "source": "// SPDX-License-Identifier: MIT\npragma solidity >=0.4.22 <0.9.0;\n\ncontract mappingContract {\n  mapping (string => string) capitals;\n\n  function addCaptital(string memory country, string memory capital) public {\n    capitals[country] = capital;\n  }\n\n  function getCaptital(string memory _country) public view returns (string memory) {\n    return capitals[_country];\n  }\n\n  function removeCapital(string memory country) public {\n    delete(capitals[country]);\n  }\n}\n",
  "sourcePath": "C:/Users/JG/.jg/stringContract/contracts/mappingContract.sol",
  "compiler": {
    "name": "solc",
    "version": "0.5.16+commit.9c3226ce.Emscripten.clang"
  },
  "schemaVersion": "3.4.1",
  "updatedAt": "2021-07-14T02:13:33.694Z",
  "devdoc": {
    "methods": {}
  },
  "userdoc": {
    "methods": {}
  }
}